:1000000004308A006C2C00000A108A100A11820742
:1000100028340C3401340634D434ED32A037753A28
:1000200021004324C12CBA1800014324C12C3A18E2
:1000300000005B3084008313000803192D2803306F
:10004000F800F701F70B2228F80B2128E330F7001E
:10005000F70B28280000800B1F2808000830F80044
:1000600000008711A011200883168700000083126A
:10007000E80D0712031C422820162008831687006B
:10008000462883122012200883168700000083125E
:10009000A0152008831687008312871D4D28F80BB2
:1000A000302800008711A011200883168700000067
:1000B0008312201620088316870000000000831298
:1000C000A0152008831687008312871D6528F80174
:1000D0000000071A78148711A011200883168700E2
:1000E000831207122012200883168700831208004B
:1000F0006608003A03198028013A0319A228C52886
:10010000650EF700F030F70577082404E700E800F3
:100110002E200000650EF700F030F7057708043850
:100120002404E700E8002E20952896289728650EDD
:10013000F700F030F7057708FB392404E700E80002
:100140002E20C528650EF700F030F7057708013836
:100150002404E700E8002E200000650EF700F030D0
:10016000F7057708013804382404E700E8002E205A
:10017000B928BA28BB28650EF700F030F7057708D4
:1001800001382404E700E8002E200800201620088B
:1001900083168700CB288312A015200883168700BA
:1001A0000000831207122012200883168700D82827
:1001B00083128711A0112008831687007E308312D6
:1001C000E8002E20620EE4000F30E4056408E5002C
:1001D0006308E600782062080F39E400E500630850
:1001E000E600782020122008831687000000831282
:1001F000A0152008831687008312871DFD2800297B
:100200000129000020162008831687000729831281
:1002100008000130E200E301C6200230DB001920B3
:100220000130A30008000830A4000B138B138B1BB4
:1002300016293230DB00192020162008831687008B
:1002400021298312A015200883168700000083123D
:10025000071220122008831687002E298312871187
:10026000A0112008831687007E308312E8002E201C
:10027000E501E60178200F30DB0019200130D100C4
:100280005108033C031C4D290330E500E6017820AA
:100290000530DB001920D10A40290230E500E601D3
:1002A00078200530DB0019202012200883168700F3
:1002B00000008312A0152008831687008312871D73
:1002C0005F29622963290000201620088316870011
:1002D00069298312D1015108033C031C7A29510872
:1002E0000420D200E200E301C6200530DB00192023
:1002F000D10A6B290921C0308B048A110A12A72C5C
:100300005C082102031887292108DD0089295C087F
:10031000DD005D08013A03199729033A0319992969
:10032000013A03199C29073A03199F29A229DF01E1
:10033000A3294030DF00A3291430DF00A329543063
:10034000DF00A329DF015B0822020318AA29220883
:10035000DE00AC295B08DE0001305E025F07E000D2
:1003600060088038E100E200E301C62008005A0876
:100370000C3A0319C229063A0319C429023A03198F
:10038000D129D6290921DB29A30A23082102031830
:10039000CB290130A3000130DB002308DC008021E1
:1003A000DB291030E200E301C620DB295A08E20015
:1003B0000130E300C6200800D3013D1CDF29D10134
:1003C0005108073C031C262AD2018518F129D20ABC
:1003D0005208643C0318EE293D14F129EF2900006E
:1003E000E5291D30F700F70BF329F6298518092AAE
:1003F0005108073CD4000130F7005408F8000319F5
:10040000052A0310F70DF80B012A7708FF3AD305E8
:10041000242A5108073CD4000130F7005408F800A2
:100420000319162A0310F70DF80B122A7708D304C4
:10043000851C242AD20A5208643C0318212A3D1440
:10044000242A222A0000182AD10AE0295308F80099
:1004500008000B08D1008B13831603178C170C149C
:100460000000000083120313D11B8B1703170C0825
:100470007F3903197D2A0313D10003170D080313D5
:10048000D20003170F080313D3005108DA00B72175
:10049000520803178D000313530803178F0003132B
:1004A0000B08D4008B13831603178C170C14000051
:1004B000000083120313D41B8B1703170C0D0E0DB2
:1004C0007F3903197D2A0313D10003170D08031385
:1004D000D20003170F080313D3005108DA00B72125
:1004E000520803178D000313530803178F008D0A5A
:1004F00003198F0A0313292A03170313080053084B
:10050000F80152020318872A5208F700932AF701CC
:100510000830D400D20DF70D530877020318F70006
:10052000F80DD40B8A2A0800F701F80151080310CE
:100530005218F707F70CF80CD218F707F70CF80C5D
:100540005219F707F70CF80CD219F707F70CF80C4B
:10055000521AF707F70CF80CD21AF707F70CF80C39
:10056000521BF707F70CF80CD21BF707F70CF80C27
:1005700008008E30F7005208F8005108F900FA011F
:10058000F808031DCD2A7908F800F9010830F702B0
:10059000F808031DCD2AF701D52A0310F81BD42A29
:1005A000F90DF80DF703CD2AF81308003D10831656
:1005B0008510831285101930DB00192085141D3039
:1005C000F700F70BE12AE42A831685142730F70099
:1005D000F70BE82AEB2A83128518FC2A4F30F70024
:1005E000F70BF02AF32A851CFC2A3130F700F70BB1
:1005F000F72AFA2A0130F800F8080319922BDC21B7
:100600007808C000DC217808C100DC217808BE0031
:10061000DC217808BF00DC217808C2003D1C202BBB
:100620000C30DA00B7210530DB000130DC0080211E
:100630000C3003178D0000308F0003132922922BFA
:10064000410840073E073F074202031D922B20301E
:10065000AD003E08D2000A30D3007F223030780748
:10066000AD003E08D2000A30D3007F223030770739
:10067000AE003F08D2000A30D3007F223030780726
:10068000B0004008D2000A30D3007F223030780713
:10069000B7004008D2000A30D3007F2230307707FD
:1006A000B8004108D2000A30D3007F2230307807EA
:1006B000BA00DF30B1003E08D1000A30D2009422E7
:1006C0007808D1003F08D2000A30D3007F22770893
:1006D0005107D201D100B9227A08C8007908C700B1
:1006E0007808C6007708C5004008D1000A30D2005B
:1006F00094227808D1004108D2000A30D3007F222A
:1007000077085107D201D100B9227A08CC007908C4
:10071000CB007808CA007708C9000930F700F70B4A
:100720008F2B922B8A110A12D22C5208D90056080C
:10073000D906D91FA02B03110310D21B0314D32BEE
:100740005208D9005508DA005108DA020319AE2B15
:10075000D91FD32B0308013A8300D32B5608DA00A4
:100760005208DA020319BA2BD91FD32B0308013A16
:100770008300D32B5708DA005308DA020319C62B7B
:10078000D91FD32B0308013A8300D32B5808DA0072
:100790005408DA020319D22BD91FD32B0308013ACC
:1007A0008300D32B0310080080080319E92BD20122
:1007B0000408D1005210831B52140008DA00B7213C
:1007C00051088400831352188317840A0319850A79
:1007D000D42B0800D9010408D8005910831B5914E0
:1007E000D21FFA2BD817581ED80AD109D209D10A1C
:1007F0000319D20A520EF038D400D407E23ED500D5
:10080000323ED70052080F39D507D507D707E93E42
:10081000D600D607D607510E0F39D607D707D60D03
:10082000D70DD709D70D51080F39D707D40D073089
:10083000D3000A30D707D603031C1A2CD607D503DA
:10084000031C1E2CD507D403031C222CD407D3036E
:10085000031C262C5330840083130730580558138B
:1008600084035805031D3B2C581A840A581A3B2C44
:100870002030F700582C840757300402031958170A
:100880000008F700031D4C2C581B4C2C581A662CE2
:10089000D8194C2C2030572CD81F542C2D30F70051
:1008A00084035813D813582CD81558123030F70732
:1008B000D2010408D1005210831B52147708DA00C9
:1008C000B72151088400831352188317840A581FD4
:1008D0003C2C8A110A125B2D03081F398300FF305C
:1008E000A0000430A1001430A2000130A3000830A1
:1008F000A400CE01CD0183161F149F141F159F1154
:1009000007309C0083138312A501A6015430AB006D
:100910003D30AC003030AD00AE002E30AF00303096
:10092000B0002030B1004330B200B3015230B40007
:100930004830B5003D30B6003030B700B8002E303A
:10094000B9003030BA002530BB00BC011329663035
:10095000DA00B7210030F8001F08C73978049F007B
:1009600083161F1383121F179F1783169F17831257
:100970001F14FF30831685001F109F141F159F152D
:10098000003087008312A000831605088312D1006F
:10099000D201D301D401510883168800FC308800AD
:1009A0008312D62AD401D3012A30D2008530D10057
:1009B0004C08D8004B08D7004A08D6004908D50093
:1009C0009523031CE82C8316081083120814EC2CC2
:1009D00083160810831208101D30F700F70BEE2C59
:1009E000F12CD401D3017030D2008330D1004808FB
:1009F000D8004708D7004608D6004508D5009523FB
:100A0000031C092DA0132008831687008312871763
:100A10000F2DA013200883168700831287131D3023
:100A2000F700F70B112D142D0130DB00DC008021C5
:100A30002B3084008313D4230130DB000230DC0030
:100A40008021343084008313D4231F151F19262DD1
:100A500083161E088312C3001E08C4004408023C0B
:100A60000318402DFF3A031D392D43080C3C031891
:100A7000402DA01220088316870083128716462D6A
:100A8000A012200883168700831287120A30DB0029
:100A900019200B30DB000130DC0080214C30DA0003
:100AA000B7213D30DA00B7210A3084004408D20073
:100AB0004308D100EA2BCF010519CF0A4F0B742D43
:100AC00083160811831208110B30DB000230DC00A2
:100AD0008021113003178D0000308F00031329226D
:100AE0000A30DB0019208F2DD0015008023C031C76
:100AF0008F2D83160811043083128806FA30DB002C
:100B000019200B30DB000230DC0080211530031788
:100B10008D0000308F0003132922D00A752DD12CAF
:020B2000630070
:02400E00022F7F
:00000001FF
;PIC16F877A
;CRC=9849  CREATED="15-Thg5-23 17:18"
